S0150000496E74657266616365436F64652E7372656303
S11300000C942A000C9422030C944B030C94740358
S11300100C9447000C9447000C9493040C944104F2
S11300200C946A040C9418040C94EF030C94C60307
S11300300C949D030C94BC040C9447000C94E504AC
S11300400C9447000C9447000C9447000C94470010
S11300500C94470011241FBECFE5D8E0DEBFCDBF0E
S113006010E0A0E6B0E0E0E2FAE002C005900D92F4
S1130070A638B107D9F720E0A6E8B0E001C01D9288
S1130080AE39B207E1F70E944D010C940E050C94B1
S113009000000895CF93C82F60E08AE00E948B028D
S11300A06C2F661F6627661F87E00E948B02C6FBC3
S11300B0662760F986E00E948B02C5FB662760F91B
S11300C085E00E948B02C4FB662760F984E00E94ED
S11300D08B0261E089E00E948B028FEC97E001972C
S11300E0F1F700C0000060E089E00E948B028FEC11
S11300F097E00197F1F700C00000C3FB662760F9A1
S113010087E00E948B02C2FB662760F986E00E94AA
S11301108B02C1FB662760F985E00E948B026C2F7D
S1130120617084E00E948B0261E089E00E948B028E
S11301308FEC97E00197F1F700C0000060E089E0E0
S11301400E948B028FEC97E00197F1F700C000004A
S1130150CF910895CF93C82F61E08AE00E948B026B
S11301606C2F661F6627661F87E00E948B02C6FB02
S1130170662760F986E00E948B02C5FB662760F95A
S113018085E00E948B02C4FB662760F984E00E942C
S11301908B0261E089E00E948B028FEC97E001976B
S11301A0F1F700C0000060E089E00E948B028FEC50
S11301B097E00197F1F700C00000C3FB662760F9E0
S11301C087E00E948B02C2FB662760F986E00E94EA
S11301D08B02C1FB662760F985E00E948B026C2FBD
S11301E0617084E00E948B0261E089E00E948B02CE
S11301F08FEC97E00197F1F700C0000060E089E020
S11302000E948B028FEC97E00197F1F700C0000089
S1130210CF9108952FE788E391E0215080409040EA
S1130220E1F700C0000082E00E944A0088E20E94D8
S11302304A008CE00E944A0081E00E944A008FEC50
S113024097E00197F1F700C0000086E00E944A00A1
S113025008950E94AA0008950F931F93CF938C01D1
S1130260C0E003C00E94AA00CF5FF801EC0FF11DAB
S113027080818111F7CFCF911F910F910895811142
S113028005C080E8860F0E944A000895813021F459
S113029080EC860F0E944A0008950E9412030E9477
S11302A00A010E94490060E081E00E943F0180E66B
S11302B090E00E942C0165E081E00E94670160E00B
S11302C080E00E943F0180E00E942901F8CF96B1AE
S11302D0987F96B996B1692B66B997B19F7D97B906
S11302E0813059F018F0823079F014C087B18F7BD7
S11302F087B987B18F7787B90DC087B1806487B913
S113030087B18F7787B906C087B1806487B987B111
S1130310806887B986B1806886B90895982F9695C4
S1130320969596958770613009F455C020F0623037
S113033009F4A1C008959130C1F028F0923039F148
S11303409330B9F108954AB321E030E0B90102C015
S1130350660F771F8A95E2F7CB01942F982B9ABBEF
S11303609BB3809589238BBB089547B321E030E08C
S1130370B90102C0660F771F8A95E2F7CB01942F6B
S1130380982B97BB98B38095892388BB089544B371
S113039021E030E0B90102C0660F771F8A95E2F7C9
S11303A0CB01942F982B94BB95B38095892385BB5F
S11303B0089541B321E030E0B90102C0660F771F10
S11303C08A95E2F7CB01942F982B91BB92B3809539
S11303D0892382BB08959130C1F028F0923039F11D
S11303E09330B9F108954AB321E030E0B90102C075
S11303F0660F771F8A95E2F7CB018095942F982397
S11304009ABB9BB389238BBB089547B321E030E0AB
S1130410B90102C0660F771F8A95E2F7CB01809578
S1130420942F982397BB98B3892388BB089544B32A
S113043021E030E0B90102C0660F771F8A95E2F728
S1130440CB018095942F982394BB95B3892385BBC6
S1130450089541B321E030E0B90102C0660F771F6F
S11304608A95E2F7CB018095942F982391BB92B3A0
S1130470892382BB08959130C1F028F0923039F17C
S11304809330B9F108954AB321E030E0B90102C0D4
S1130490660F771F8A95E2F7CB01962F90959423E8
S11304A09ABB9BB3892B8BBB089547B321E030E003
S11304B0B90102C0660F771F8A95E2F7CB01962F28
S11304C09095942397BB98B3892B88BB089544B324
S11304D021E030E0B90102C0660F771F8A95E2F788
S11304E0CB01962F9095942394BB95B3892B85BB10
S11304F0089541B321E030E0B90102C0660F771FCF
S11305008A95E2F7CB01962F9095942391BB92B3F1
S1130510892B82BB0895982F96959695969587700A
S1130520662321F0613009F441C008959130A1F0AF
S113053028F09230F9F0933059F108954BB321E04B
S113054030E0B90102C0660F771F8A95E2F7CB014C
S1130550809584238BBB089548B321E030E0B90132
S113056002C0660F771F8A95E2F7CB01809584233A
S113057088BB089545B321E030E0B90102C0660F9D
S1130580771F8A95E2F7CB018095842385BB089574
S113059042B321E030E0B90102C0660F771F8A95AB
S11305A0E2F7CB018095842382BB0895913099F0C2
S11305B028F09230E9F0933041F108954BB321E0F3
S11305C030E0B90102C0660F771F8A95E2F7CB01CC
S11305D0842B8BBB089548B321E030E0B90102C0FD
S11305E0660F771F8A95E2F7CB01842B88BB0895A9
S11305F045B321E030E0B90102C0660F771F8A9548
S1130600E2F7CB01842B85BB089542B321E030E0AF
S1130610B90102C0660F771F8A95E2F7CB01842BDC
S113062082BB0895CF93C0E009C0EC2FF0E0EA59F3
S1130630FF4F60818C2F0E948E01CF5FC032A8F3E0
S1130640CF9108951F920F920FB60F9211242F93FA
S11306503F934F935F936F937F938F939F93AF9346
S1130660BF93EF93FF93E0918A00F0918B00309752
S113067009F00995FF91EF91BF91AF919F918F91EF
S11306807F916F915F914F913F912F910F900FBE8A
S11306900F901F9018951F920F920FB60F9211246E
S11306A02F933F934F935F936F937F938F939F9376
S11306B0AF93BF93EF93FF93E0918800F09189008B
S11306C0309709F00995FF91EF91BF91AF919F91F8
S11306D08F917F916F915F914F913F912F910F90E7
S11306E00FBE0F901F9018951F920F920FB60F9286
S11306F011242F933F934F935F936F937F938F9323
S11307009F93AF93BF93EF93FF93E0918600F09193
S11307108700309709F00995FF91EF91BF91AF9150
S11307209F918F917F916F915F914F913F912F9105
S11307300F900FBE0F901F9018951F920F920FB637
S11307400F9211242F933F934F935F936F937F9353
S11307508F939F93AF93BF93EF93FF93E0918C009C
S1130760F0918D00309709F00995FF91EF91BF91B9
S1130770AF919F918F917F916F915F914F913F9135
S11307802F910F900FBE0F901F9018951F920F92EC
S11307900FB60F9211242F933F934F935F936F9350
S11307A07F938F939F93AF93BF93EF93FF93E091C6
S11307B09800F0919900309709F00995FF91EF9115
S11307C0BF91AF919F918F917F916F915F914F9165
S11307D03F912F910F900FBE0F901F9018951F926D
S11307E00F920FB60F9211242F933F934F935F9361
S11307F06F937F938F939F93AF93BF93EF93FF93E5
S1130800E0919600F0919700309709F00995FF91D7
S1130810EF91BF91AF919F918F917F916F915F9174
S11308204F913F912F910F900FBE0F901F901895ED
S11308301F920F920FB60F9211242F933F934F9351
S11308405F936F937F938F939F93AF93BF93EF9334
S1130850FF93E0919400F0919500309709F0099589
S1130860FF91EF91BF91AF919F918F917F916F9184
S11308705F914F913F912F910F900FBE0F901F905A
S113088018951F920F920FB60F9211242F933F9336
S11308904F935F936F937F938F939F93AF93BF9384
S11308A0EF93FF93E0919200F0919300309709F059
S11308B00995FF91EF91BF91AF919F918F917F9196
S11308C06F915F914F913F912F910F900FBE0F90B9
S11308D01F9018951F920F920FB60F9211242F9309
S11308E03F934F935F936F937F938F939F93AF93B4
S11308F0BF93EF93FF93E0919000F09191003097B4
S113090009F00995FF91EF91BF91AF919F918F915C
S11309107F916F915F914F913F912F910F900FBEF7
S11309200F901F9018951F920F920FB60F921124DB
S11309302F933F934F935F936F937F938F939F93E3
S1130940AF93BF93EF93FF93E0918E00F0918F00EC
S1130950309709F00995FF91EF91BF91AF919F9165
S11309608F917F916F915F914F913F912F910F9054
S11309700FBE0F901F9018951F920F920FB60F92F3
S113098011242F933F934F935F936F937F938F9390
S11309909F93AF93BF93EF93FF93E0919C00F091EB
S11309A09D00309709F00995FF91EF91BF91AF91A8
S11309B09F918F917F916F915F914F913F912F9173
S11309C00F900FBE0F901F9018951F920F920FB6A5
S11309D00F9211242F933F934F935F936F937F93C1
S11309E08F939F93AF93BF93EF93FF93E0919A00FC
S11309F0F0919B00309709F00995FF91EF91BF9119
S1130A00AF919F918F917F916F915F914F913F91A2
S1130A102F910F900FBE0F901F901895F894FFCF51
S1130A20536C6176650001000000000000000000C6
S1130A3000000101000100000000000000000200AD
S1090A40020200000200A6
S9030000FC
