S0150000496E74657266616365436F64652E7372656303
S11300000C942A000C9447000C9447000C9447006D
S11300100C9447000C9447000C9447000C94470040
S11300200C9447000C9447000C9447000C94470030
S11300300C9447000C9447000C9447000C94470020
S11300400C9447000C9447000C9447000C94470010
S11300500C94470011241FBECFE5D8E0DEBFCDBF0E
S113006010E0A0E6B0E0E6EAF0E002C005900D92F0
S1130070A036B107D9F720E0A0E6B0E001C01D9298
S1130080A036B207E1F70E9449000C9451000C9489
S11300900000E0E0F1E085E080838AE080838081F5
S10900A0FFCFF894FFCF2E
S9030000FC
